{
    "_format": "hh-sol-artifact-1",
    "contractName": "TrustlessRep",
    "sourceName": "contracts/basic-solidity-examples/TrustlessRep.sol",
    "abi": [
        {
            "anonymous": false,
            "inputs": [
                {
                    "indexed": true,
                    "internalType": "address",
                    "name": "subject",
                    "type": "address"
                },
                {
                    "indexed": true,
                    "internalType": "address",
                    "name": "issuer",
                    "type": "address"
                },
                {
                    "indexed": true,
                    "internalType": "bytes32",
                    "name": "data",
                    "type": "bytes32"
                }
            ],
            "name": "IdentityAttestation",
            "type": "event"
        },
        {
            "anonymous": false,
            "inputs": [
                {
                    "indexed": true,
                    "internalType": "address",
                    "name": "previousOwner",
                    "type": "address"
                },
                {
                    "indexed": true,
                    "internalType": "address",
                    "name": "newOwner",
                    "type": "address"
                }
            ],
            "name": "OwnershipTransferred",
            "type": "event"
        },
        {
            "anonymous": false,
            "inputs": [
                {
                    "indexed": false,
                    "internalType": "string",
                    "name": "name",
                    "type": "string"
                },
                {
                    "indexed": true,
                    "internalType": "uint256",
                    "name": "stakeAmount",
                    "type": "uint256"
                }
            ],
            "name": "stakeAddition",
            "type": "event"
        },
        {
            "inputs": [
                {
                    "internalType": "string",
                    "name": "name",
                    "type": "string"
                },
                {
                    "internalType": "address",
                    "name": "newMinerAddress",
                    "type": "address"
                }
            ],
            "name": "changeMinerAddress",
            "outputs": [],
            "stateMutability": "nonpayable",
            "type": "function"
        },
        {
            "inputs": [
                {
                    "internalType": "string",
                    "name": "",
                    "type": "string"
                }
            ],
            "name": "credentials",
            "outputs": [
                {
                    "internalType": "address",
                    "name": "issuer",
                    "type": "address"
                },
                {
                    "internalType": "address",
                    "name": "minerAddress",
                    "type": "address"
                },
                {
                    "internalType": "string",
                    "name": "name",
                    "type": "string"
                },
                {
                    "internalType": "string",
                    "name": "rating",
                    "type": "string"
                },
                {
                    "internalType": "uint256",
                    "name": "stakeAmount",
                    "type": "uint256"
                },
                {
                    "internalType": "string",
                    "name": "issueDate",
                    "type": "string"
                }
            ],
            "stateMutability": "view",
            "type": "function"
        },
        {
            "inputs": [
                {
                    "internalType": "string",
                    "name": "name",
                    "type": "string"
                }
            ],
            "name": "getCredential",
            "outputs": [
                {
                    "internalType": "address",
                    "name": "",
                    "type": "address"
                },
                {
                    "internalType": "string",
                    "name": "",
                    "type": "string"
                },
                {
                    "internalType": "string",
                    "name": "",
                    "type": "string"
                },
                {
                    "internalType": "string",
                    "name": "",
                    "type": "string"
                }
            ],
            "stateMutability": "view",
            "type": "function"
        },
        {
            "inputs": [
                {
                    "internalType": "address",
                    "name": "minerAddress",
                    "type": "address"
                },
                {
                    "internalType": "string",
                    "name": "name",
                    "type": "string"
                },
                {
                    "internalType": "string",
                    "name": "rating",
                    "type": "string"
                },
                {
                    "internalType": "string",
                    "name": "issueDate",
                    "type": "string"
                }
            ],
            "name": "issueCredential",
            "outputs": [],
            "stateMutability": "nonpayable",
            "type": "function"
        },
        {
            "inputs": [],
            "name": "owner",
            "outputs": [
                {
                    "internalType": "address",
                    "name": "",
                    "type": "address"
                }
            ],
            "stateMutability": "view",
            "type": "function"
        },
        {
            "inputs": [],
            "name": "renounceOwnership",
            "outputs": [],
            "stateMutability": "nonpayable",
            "type": "function"
        },
        {
            "inputs": [
                {
                    "internalType": "string",
                    "name": "name",
                    "type": "string"
                }
            ],
            "name": "stake",
            "outputs": [],
            "stateMutability": "payable",
            "type": "function"
        },
        {
            "inputs": [
                {
                    "internalType": "address",
                    "name": "newOwner",
                    "type": "address"
                }
            ],
            "name": "transferOwnership",
            "outputs": [],
            "stateMutability": "nonpayable",
            "type": "function"
        },
        {
            "inputs": [
                {
                    "internalType": "string",
                    "name": "name",
                    "type": "string"
                },
                {
                    "internalType": "string",
                    "name": "rating",
                    "type": "string"
                }
            ],
            "name": "updateCredential",
            "outputs": [],
            "stateMutability": "nonpayable",
            "type": "function"
        }
    ],
    "bytecode": "0x608060405234801561001057600080fd5b5061002d61002261003260201b60201c565b61003a60201b60201c565b6100fe565b600033905090565b60008060009054906101000a900473ffffffffffffffffffffffffffffffffffffffff169050816000806101000a81548173ffffffffffffffffffffffffffffffffffffffff021916908373ffffffffffffffffffffffffffffffffffffffff1602179055508173ffffffffffffffffffffffffffffffffffffffff168173ffffffffffffffffffffffffffffffffffffffff167f8be0079c531659141344cd1fd0a4f28419497f9722a3daafe3b4186f6b6457e060405160405180910390a35050565b61187d8061010d6000396000f3fe6080604052600436106100865760003560e01c8063715018a611610059578063715018a6146101225780638da5cb5b14610139578063bf4af9b114610164578063d091187f146101a6578063f2fde38b146101e657610086565b8063049a380d1461008b5780633bdac5e2146100b457806346f45b8d146100dd57806349bda2df146100f9575b600080fd5b34801561009757600080fd5b506100b260048036038101906100ad9190610e85565b61020f565b005b3480156100c057600080fd5b506100db60048036038101906100d69190610f40565b6103f7565b005b6100f760048036038101906100f29190610f9c565b610463565b005b34801561010557600080fd5b50610120600480360381019061011b9190610fe5565b610519565b005b34801561012e57600080fd5b5061013761063a565b005b34801561014557600080fd5b5061014e61064e565b60405161015b919061106c565b60405180910390f35b34801561017057600080fd5b5061018b60048036038101906101869190610f9c565b610677565b60405161019d9695949392919061111f565b60405180910390f35b3480156101b257600080fd5b506101cd60048036038101906101c89190610f9c565b6108a1565b6040516101dd9493929190611195565b60405180910390f35b3480156101f257600080fd5b5061020d600480360381019061020891906111ef565b610b00565b005b610217610b83565b6040518060c001604052803373ffffffffffffffffffffffffffffffffffffffff1681526020018573ffffffffffffffffffffffffffffffffffffffff16815260200184815260200183815260200160008152602001828152506001846040516102819190611258565b908152602001604051809103902060008201518160000160006101000a81548173ffffffffffffffffffffffffffffffffffffffff021916908373ffffffffffffffffffffffffffffffffffffffff16021790555060208201518160010160006101000a81548173ffffffffffffffffffffffffffffffffffffffff021916908373ffffffffffffffffffffffffffffffffffffffff1602179055506040820151816002019081610332919061147b565b506060820151816003019081610348919061147b565b506080820151816004015560a0820151816005019081610368919061147b565b509050508282826040516020016103819392919061154d565b604051602081830303815290604052805190602001203373ffffffffffffffffffffffffffffffffffffffff168573ffffffffffffffffffffffffffffffffffffffff167f51ee4fd358665ebc3bb3f4bf6e7f491c2aa65bd3efac66e577994d60a95b171160405160405180910390a450505050565b6103ff610b83565b806001836040516104109190611258565b908152602001604051809103902060010160006101000a81548173ffffffffffffffffffffffffffffffffffffffff021916908373ffffffffffffffffffffffffffffffffffffffff1602179055505050565b600034116104a6576040517f08c379a000000000000000000000000000000000000000000000000000000000815260040161049d906115f0565b60405180910390fd5b346001826040516104b79190611258565b908152602001604051809103902060040160008282546104d7919061163f565b92505081905550347f943c61674f052fbd2c2cdcc12774eba560e0be46f86c055cd3946969c79794b28260405161050e9190611673565b60405180910390a250565b610521610b83565b806001836040516105329190611258565b9081526020016040518091039020600301908161054f919061147b565b5081816001846040516105629190611258565b908152602001604051809103902060050160405160200161058593929190611718565b604051602081830303815290604052805190602001203373ffffffffffffffffffffffffffffffffffffffff166001846040516105c29190611258565b908152602001604051809103902060010160009054906101000a900473ffffffffffffffffffffffffffffffffffffffff1673ffffffffffffffffffffffffffffffffffffffff167f51ee4fd358665ebc3bb3f4bf6e7f491c2aa65bd3efac66e577994d60a95b171160405160405180910390a45050565b610642610b83565b61064c6000610c01565b565b60008060009054906101000a900473ffffffffffffffffffffffffffffffffffffffff16905090565b6001818051602081018201805184825260208301602085012081835280955050505050506000915090508060000160009054906101000a900473ffffffffffffffffffffffffffffffffffffffff16908060010160009054906101000a900473ffffffffffffffffffffffffffffffffffffffff16908060020180546106fc9061129e565b80601f01602080910402602001604051908101604052809291908181526020018280546107289061129e565b80156107755780601f1061074a57610100808354040283529160200191610775565b820191906000526020600020905b81548152906001019060200180831161075857829003601f168201915b50505050509080600301805461078a9061129e565b80601f01602080910402602001604051908101604052809291908181526020018280546107b69061129e565b80156108035780601f106107d857610100808354040283529160200191610803565b820191906000526020600020905b8154815290600101906020018083116107e657829003601f168201915b50505050509080600401549080600501805461081e9061129e565b80601f016020809104026020016040519081016040528092919081815260200182805461084a9061129e565b80156108975780601f1061086c57610100808354040283529160200191610897565b820191906000526020600020905b81548152906001019060200180831161087a57829003601f168201915b5050505050905086565b600060608060606001856040516108b89190611258565b908152602001604051809103902060000160009054906101000a900473ffffffffffffffffffffffffffffffffffffffff166001866040516108fa9190611258565b908152602001604051809103902060020160018760405161091b9190611258565b908152602001604051809103902060030160018860405161093c9190611258565b90815260200160405180910390206005018280546109599061129e565b80601f01602080910402602001604051908101604052809291908181526020018280546109859061129e565b80156109d25780601f106109a7576101008083540402835291602001916109d2565b820191906000526020600020905b8154815290600101906020018083116109b557829003601f168201915b505050505092508180546109e59061129e565b80601f0160208091040260200160405190810160405280929190818152602001828054610a119061129e565b8015610a5e5780601f10610a3357610100808354040283529160200191610a5e565b820191906000526020600020905b815481529060010190602001808311610a4157829003601f168201915b50505050509150808054610a719061129e565b80601f0160208091040260200160405190810160405280929190818152602001828054610a9d9061129e565b8015610aea5780601f10610abf57610100808354040283529160200191610aea565b820191906000526020600020905b815481529060010190602001808311610acd57829003601f168201915b5050505050905093509350935093509193509193565b610b08610b83565b600073ffffffffffffffffffffffffffffffffffffffff168173ffffffffffffffffffffffffffffffffffffffff1603610b77576040517f08c379a0000000000000000000000000000000000000000000000000000000008152600401610b6e906117bb565b60405180910390fd5b610b8081610c01565b50565b610b8b610cc5565b73ffffffffffffffffffffffffffffffffffffffff16610ba961064e565b73ffffffffffffffffffffffffffffffffffffffff1614610bff576040517f08c379a0000000000000000000000000000000000000000000000000000000008152600401610bf690611827565b60405180910390fd5b565b60008060009054906101000a900473ffffffffffffffffffffffffffffffffffffffff169050816000806101000a81548173ffffffffffffffffffffffffffffffffffffffff021916908373ffffffffffffffffffffffffffffffffffffffff1602179055508173ffffffffffffffffffffffffffffffffffffffff168173ffffffffffffffffffffffffffffffffffffffff167f8be0079c531659141344cd1fd0a4f28419497f9722a3daafe3b4186f6b6457e060405160405180910390a35050565b600033905090565b6000604051905090565b600080fd5b600080fd5b600073ffffffffffffffffffffffffffffffffffffffff82169050919050565b6000610d0c82610ce1565b9050919050565b610d1c81610d01565b8114610d2757600080fd5b50565b600081359050610d3981610d13565b92915050565b600080fd5b600080fd5b6000601f19601f8301169050919050565b7f4e487b7100000000000000000000000000000000000000000000000000000000600052604160045260246000fd5b610d9282610d49565b810181811067ffffffffffffffff82111715610db157610db0610d5a565b5b80604052505050565b6000610dc4610ccd565b9050610dd08282610d89565b919050565b600067ffffffffffffffff821115610df057610def610d5a565b5b610df982610d49565b9050602081019050919050565b82818337600083830152505050565b6000610e28610e2384610dd5565b610dba565b905082815260208101848484011115610e4457610e43610d44565b5b610e4f848285610e06565b509392505050565b600082601f830112610e6c57610e6b610d3f565b5b8135610e7c848260208601610e15565b91505092915050565b60008060008060808587031215610e9f57610e9e610cd7565b5b6000610ead87828801610d2a565b945050602085013567ffffffffffffffff811115610ece57610ecd610cdc565b5b610eda87828801610e57565b935050604085013567ffffffffffffffff811115610efb57610efa610cdc565b5b610f0787828801610e57565b925050606085013567ffffffffffffffff811115610f2857610f27610cdc565b5b610f3487828801610e57565b91505092959194509250565b60008060408385031215610f5757610f56610cd7565b5b600083013567ffffffffffffffff811115610f7557610f74610cdc565b5b610f8185828601610e57565b9250506020610f9285828601610d2a565b9150509250929050565b600060208284031215610fb257610fb1610cd7565b5b600082013567ffffffffffffffff811115610fd057610fcf610cdc565b5b610fdc84828501610e57565b91505092915050565b60008060408385031215610ffc57610ffb610cd7565b5b600083013567ffffffffffffffff81111561101a57611019610cdc565b5b61102685828601610e57565b925050602083013567ffffffffffffffff81111561104757611046610cdc565b5b61105385828601610e57565b9150509250929050565b61106681610d01565b82525050565b6000602082019050611081600083018461105d565b92915050565b600081519050919050565b600082825260208201905092915050565b60005b838110156110c15780820151818401526020810190506110a6565b60008484015250505050565b60006110d882611087565b6110e28185611092565b93506110f28185602086016110a3565b6110fb81610d49565b840191505092915050565b6000819050919050565b61111981611106565b82525050565b600060c082019050611134600083018961105d565b611141602083018861105d565b818103604083015261115381876110cd565b9050818103606083015261116781866110cd565b90506111766080830185611110565b81810360a083015261118881846110cd565b9050979650505050505050565b60006080820190506111aa600083018761105d565b81810360208301526111bc81866110cd565b905081810360408301526111d081856110cd565b905081810360608301526111e481846110cd565b905095945050505050565b60006020828403121561120557611204610cd7565b5b600061121384828501610d2a565b91505092915050565b600081905092915050565b600061123282611087565b61123c818561121c565b935061124c8185602086016110a3565b80840191505092915050565b60006112648284611227565b915081905092915050565b7f4e487b7100000000000000000000000000000000000000000000000000000000600052602260045260246000fd5b600060028204905060018216806112b657607f821691505b6020821081036112c9576112c861126f565b5b50919050565b60008190508160005260206000209050919050565b60006020601f8301049050919050565b600082821b905092915050565b6000600883026113317fffffffffffffffffffffffffffffffffffffffffffffffffffffffffffffffff826112f4565b61133b86836112f4565b95508019841693508086168417925050509392505050565b6000819050919050565b600061137861137361136e84611106565b611353565b611106565b9050919050565b6000819050919050565b6113928361135d565b6113a661139e8261137f565b848454611301565b825550505050565b600090565b6113bb6113ae565b6113c6818484611389565b505050565b5b818110156113ea576113df6000826113b3565b6001810190506113cc565b5050565b601f82111561142f57611400816112cf565b611409846112e4565b81016020851015611418578190505b61142c611424856112e4565b8301826113cb565b50505b505050565b600082821c905092915050565b600061145260001984600802611434565b1980831691505092915050565b600061146b8383611441565b9150826002028217905092915050565b61148482611087565b67ffffffffffffffff81111561149d5761149c610d5a565b5b6114a7825461129e565b6114b28282856113ee565b600060209050601f8311600181146114e557600084156114d3578287015190505b6114dd858261145f565b865550611545565b601f1984166114f3866112cf565b60005b8281101561151b578489015182556001820191506020850194506020810190506114f6565b868310156115385784890151611534601f891682611441565b8355505b6001600288020188555050505b505050505050565b60006115598286611227565b91506115658285611227565b91506115718284611227565b9150819050949350505050565b7f5374616b652076616c7565206d7573742062652067726561746572207468616e60008201527f2030000000000000000000000000000000000000000000000000000000000000602082015250565b60006115da602283611092565b91506115e58261157e565b604082019050919050565b60006020820190508181036000830152611609816115cd565b9050919050565b7f4e487b7100000000000000000000000000000000000000000000000000000000600052601160045260246000fd5b600061164a82611106565b915061165583611106565b925082820190508082111561166d5761166c611610565b5b92915050565b6000602082019050818103600083015261168d81846110cd565b905092915050565b600081546116a28161129e565b6116ac818661121c565b945060018216600081146116c757600181146116dc5761170f565b60ff198316865281151582028601935061170f565b6116e5856112cf565b60005b83811015611707578154818901526001820191506020810190506116e8565b838801955050505b50505092915050565b60006117248286611227565b91506117308285611227565b915061173c8284611695565b9150819050949350505050565b7f4f776e61626c653a206e6577206f776e657220697320746865207a65726f206160008201527f6464726573730000000000000000000000000000000000000000000000000000602082015250565b60006117a5602683611092565b91506117b082611749565b604082019050919050565b600060208201905081810360008301526117d481611798565b9050919050565b7f4f776e61626c653a2063616c6c6572206973206e6f7420746865206f776e6572600082015250565b6000611811602083611092565b915061181c826117db565b602082019050919050565b6000602082019050818103600083015261184081611804565b905091905056fea2646970667358221220330fd6fc519426dbc08b8c2ae526ff835f94681e53eca79a0d62701747c93f8664736f6c63430008110033",
    "linkReferences": {},
    "deployedLinkReferences": {}
}