{
  "_format": "hh-sol-artifact-1",
  "contractName": "TrustlessRep",
  "sourceName": "contracts/basic-solidity-examples/TrustlessRep.sol",
  "abi": [
    {
      "anonymous": false,
      "inputs": [
        {
          "indexed": true,
          "internalType": "address",
          "name": "subject",
          "type": "address"
        },
        {
          "indexed": true,
          "internalType": "address",
          "name": "issuer",
          "type": "address"
        },
        {
          "indexed": true,
          "internalType": "bytes32",
          "name": "data",
          "type": "bytes32"
        }
      ],
      "name": "IdentityAttestation",
      "type": "event"
    },
    {
      "anonymous": false,
      "inputs": [
        {
          "indexed": true,
          "internalType": "address",
          "name": "previousOwner",
          "type": "address"
        },
        {
          "indexed": true,
          "internalType": "address",
          "name": "newOwner",
          "type": "address"
        }
      ],
      "name": "OwnershipTransferred",
      "type": "event"
    },
    {
      "inputs": [
        {
          "internalType": "string",
          "name": "",
          "type": "string"
        }
      ],
      "name": "credentials",
      "outputs": [
        {
          "internalType": "address",
          "name": "issuer",
          "type": "address"
        },
        {
          "internalType": "address",
          "name": "minerAddress",
          "type": "address"
        },
        {
          "internalType": "string",
          "name": "name",
          "type": "string"
        },
        {
          "internalType": "string",
          "name": "rating",
          "type": "string"
        },
        {
          "internalType": "uint256",
          "name": "stakeAmount",
          "type": "uint256"
        },
        {
          "internalType": "string",
          "name": "issueDate",
          "type": "string"
        }
      ],
      "stateMutability": "view",
      "type": "function"
    },
    {
      "inputs": [
        {
          "internalType": "string",
          "name": "name",
          "type": "string"
        }
      ],
      "name": "getCredential",
      "outputs": [
        {
          "internalType": "address",
          "name": "",
          "type": "address"
        },
        {
          "internalType": "string",
          "name": "",
          "type": "string"
        },
        {
          "internalType": "string",
          "name": "",
          "type": "string"
        },
        {
          "internalType": "string",
          "name": "",
          "type": "string"
        }
      ],
      "stateMutability": "view",
      "type": "function"
    },
    {
      "inputs": [
        {
          "internalType": "address",
          "name": "minerAddress",
          "type": "address"
        },
        {
          "internalType": "string",
          "name": "name",
          "type": "string"
        },
        {
          "internalType": "string",
          "name": "rating",
          "type": "string"
        },
        {
          "internalType": "string",
          "name": "issueDate",
          "type": "string"
        }
      ],
      "name": "issueCredential",
      "outputs": [],
      "stateMutability": "nonpayable",
      "type": "function"
    },
    {
      "inputs": [],
      "name": "owner",
      "outputs": [
        {
          "internalType": "address",
          "name": "",
          "type": "address"
        }
      ],
      "stateMutability": "view",
      "type": "function"
    },
    {
      "inputs": [],
      "name": "renounceOwnership",
      "outputs": [],
      "stateMutability": "nonpayable",
      "type": "function"
    },
    {
      "inputs": [
        {
          "internalType": "string",
          "name": "name",
          "type": "string"
        }
      ],
      "name": "stake",
      "outputs": [],
      "stateMutability": "payable",
      "type": "function"
    },
    {
      "inputs": [
        {
          "internalType": "address",
          "name": "newOwner",
          "type": "address"
        }
      ],
      "name": "transferOwnership",
      "outputs": [],
      "stateMutability": "nonpayable",
      "type": "function"
    },
    {
      "inputs": [
        {
          "internalType": "string",
          "name": "name",
          "type": "string"
        },
        {
          "internalType": "string",
          "name": "rating",
          "type": "string"
        }
      ],
      "name": "updateCredential",
      "outputs": [],
      "stateMutability": "nonpayable",
      "type": "function"
    }
  ],
  "bytecode": "0x608060405234801561001057600080fd5b5061002d61002261003260201b60201c565b61003a60201b60201c565b6100fe565b600033905090565b60008060009054906101000a900473ffffffffffffffffffffffffffffffffffffffff169050816000806101000a81548173ffffffffffffffffffffffffffffffffffffffff021916908373ffffffffffffffffffffffffffffffffffffffff1602179055508173ffffffffffffffffffffffffffffffffffffffff168173ffffffffffffffffffffffffffffffffffffffff167f8be0079c531659141344cd1fd0a4f28419497f9722a3daafe3b4186f6b6457e060405160405180910390a35050565b6117278061010d6000396000f3fe60806040526004361061007b5760003560e01c80638da5cb5b1161004e5780638da5cb5b14610105578063bf4af9b114610130578063d091187f14610172578063f2fde38b146101b25761007b565b8063049a380d1461008057806346f45b8d146100a957806349bda2df146100c5578063715018a6146100ee575b600080fd5b34801561008c57600080fd5b506100a760048036038101906100a29190610dad565b6101db565b005b6100c360048036038101906100be9190610e68565b6103c3565b005b3480156100d157600080fd5b506100ec60048036038101906100e79190610eb1565b610441565b005b3480156100fa57600080fd5b50610103610562565b005b34801561011157600080fd5b5061011a610576565b6040516101279190610f38565b60405180910390f35b34801561013c57600080fd5b5061015760048036038101906101529190610e68565b61059f565b60405161016996959493929190610feb565b60405180910390f35b34801561017e57600080fd5b5061019960048036038101906101949190610e68565b6107c9565b6040516101a99493929190611061565b60405180910390f35b3480156101be57600080fd5b506101d960048036038101906101d491906110bb565b610a28565b005b6101e3610aab565b6040518060c001604052803373ffffffffffffffffffffffffffffffffffffffff1681526020018573ffffffffffffffffffffffffffffffffffffffff168152602001848152602001838152602001600081526020018281525060018460405161024d9190611124565b908152602001604051809103902060008201518160000160006101000a81548173ffffffffffffffffffffffffffffffffffffffff021916908373ffffffffffffffffffffffffffffffffffffffff16021790555060208201518160010160006101000a81548173ffffffffffffffffffffffffffffffffffffffff021916908373ffffffffffffffffffffffffffffffffffffffff16021790555060408201518160020190816102fe9190611347565b5060608201518160030190816103149190611347565b506080820151816004015560a08201518160050190816103349190611347565b5090505082828260405160200161034d93929190611419565b604051602081830303815290604052805190602001203373ffffffffffffffffffffffffffffffffffffffff168573ffffffffffffffffffffffffffffffffffffffff167f51ee4fd358665ebc3bb3f4bf6e7f491c2aa65bd3efac66e577994d60a95b171160405160405180910390a450505050565b60003411610406576040517f08c379a00000000000000000000000000000000000000000000000000000000081526004016103fd906114bc565b60405180910390fd5b346001826040516104179190611124565b90815260200160405180910390206004016000828254610437919061150b565b9250508190555050565b610449610aab565b8060018360405161045a9190611124565b908152602001604051809103902060030190816104779190611347565b50818160018460405161048a9190611124565b90815260200160405180910390206005016040516020016104ad939291906115c2565b604051602081830303815290604052805190602001203373ffffffffffffffffffffffffffffffffffffffff166001846040516104ea9190611124565b908152602001604051809103902060010160009054906101000a900473ffffffffffffffffffffffffffffffffffffffff1673ffffffffffffffffffffffffffffffffffffffff167f51ee4fd358665ebc3bb3f4bf6e7f491c2aa65bd3efac66e577994d60a95b171160405160405180910390a45050565b61056a610aab565b6105746000610b29565b565b60008060009054906101000a900473ffffffffffffffffffffffffffffffffffffffff16905090565b6001818051602081018201805184825260208301602085012081835280955050505050506000915090508060000160009054906101000a900473ffffffffffffffffffffffffffffffffffffffff16908060010160009054906101000a900473ffffffffffffffffffffffffffffffffffffffff16908060020180546106249061116a565b80601f01602080910402602001604051908101604052809291908181526020018280546106509061116a565b801561069d5780601f106106725761010080835404028352916020019161069d565b820191906000526020600020905b81548152906001019060200180831161068057829003601f168201915b5050505050908060030180546106b29061116a565b80601f01602080910402602001604051908101604052809291908181526020018280546106de9061116a565b801561072b5780601f106107005761010080835404028352916020019161072b565b820191906000526020600020905b81548152906001019060200180831161070e57829003601f168201915b5050505050908060040154908060050180546107469061116a565b80601f01602080910402602001604051908101604052809291908181526020018280546107729061116a565b80156107bf5780601f10610794576101008083540402835291602001916107bf565b820191906000526020600020905b8154815290600101906020018083116107a257829003601f168201915b5050505050905086565b600060608060606001856040516107e09190611124565b908152602001604051809103902060000160009054906101000a900473ffffffffffffffffffffffffffffffffffffffff166001866040516108229190611124565b90815260200160405180910390206002016001876040516108439190611124565b90815260200160405180910390206003016001886040516108649190611124565b90815260200160405180910390206005018280546108819061116a565b80601f01602080910402602001604051908101604052809291908181526020018280546108ad9061116a565b80156108fa5780601f106108cf576101008083540402835291602001916108fa565b820191906000526020600020905b8154815290600101906020018083116108dd57829003601f168201915b5050505050925081805461090d9061116a565b80601f01602080910402602001604051908101604052809291908181526020018280546109399061116a565b80156109865780601f1061095b57610100808354040283529160200191610986565b820191906000526020600020905b81548152906001019060200180831161096957829003601f168201915b505050505091508080546109999061116a565b80601f01602080910402602001604051908101604052809291908181526020018280546109c59061116a565b8015610a125780601f106109e757610100808354040283529160200191610a12565b820191906000526020600020905b8154815290600101906020018083116109f557829003601f168201915b5050505050905093509350935093509193509193565b610a30610aab565b600073ffffffffffffffffffffffffffffffffffffffff168173ffffffffffffffffffffffffffffffffffffffff1603610a9f576040517f08c379a0000000000000000000000000000000000000000000000000000000008152600401610a9690611665565b60405180910390fd5b610aa881610b29565b50565b610ab3610bed565b73ffffffffffffffffffffffffffffffffffffffff16610ad1610576565b73ffffffffffffffffffffffffffffffffffffffff1614610b27576040517f08c379a0000000000000000000000000000000000000000000000000000000008152600401610b1e906116d1565b60405180910390fd5b565b60008060009054906101000a900473ffffffffffffffffffffffffffffffffffffffff169050816000806101000a81548173ffffffffffffffffffffffffffffffffffffffff021916908373ffffffffffffffffffffffffffffffffffffffff1602179055508173ffffffffffffffffffffffffffffffffffffffff168173ffffffffffffffffffffffffffffffffffffffff167f8be0079c531659141344cd1fd0a4f28419497f9722a3daafe3b4186f6b6457e060405160405180910390a35050565b600033905090565b6000604051905090565b600080fd5b600080fd5b600073ffffffffffffffffffffffffffffffffffffffff82169050919050565b6000610c3482610c09565b9050919050565b610c4481610c29565b8114610c4f57600080fd5b50565b600081359050610c6181610c3b565b92915050565b600080fd5b600080fd5b6000601f19601f8301169050919050565b7f4e487b7100000000000000000000000000000000000000000000000000000000600052604160045260246000fd5b610cba82610c71565b810181811067ffffffffffffffff82111715610cd957610cd8610c82565b5b80604052505050565b6000610cec610bf5565b9050610cf88282610cb1565b919050565b600067ffffffffffffffff821115610d1857610d17610c82565b5b610d2182610c71565b9050602081019050919050565b82818337600083830152505050565b6000610d50610d4b84610cfd565b610ce2565b905082815260208101848484011115610d6c57610d6b610c6c565b5b610d77848285610d2e565b509392505050565b600082601f830112610d9457610d93610c67565b5b8135610da4848260208601610d3d565b91505092915050565b60008060008060808587031215610dc757610dc6610bff565b5b6000610dd587828801610c52565b945050602085013567ffffffffffffffff811115610df657610df5610c04565b5b610e0287828801610d7f565b935050604085013567ffffffffffffffff811115610e2357610e22610c04565b5b610e2f87828801610d7f565b925050606085013567ffffffffffffffff811115610e5057610e4f610c04565b5b610e5c87828801610d7f565b91505092959194509250565b600060208284031215610e7e57610e7d610bff565b5b600082013567ffffffffffffffff811115610e9c57610e9b610c04565b5b610ea884828501610d7f565b91505092915050565b60008060408385031215610ec857610ec7610bff565b5b600083013567ffffffffffffffff811115610ee657610ee5610c04565b5b610ef285828601610d7f565b925050602083013567ffffffffffffffff811115610f1357610f12610c04565b5b610f1f85828601610d7f565b9150509250929050565b610f3281610c29565b82525050565b6000602082019050610f4d6000830184610f29565b92915050565b600081519050919050565b600082825260208201905092915050565b60005b83811015610f8d578082015181840152602081019050610f72565b60008484015250505050565b6000610fa482610f53565b610fae8185610f5e565b9350610fbe818560208601610f6f565b610fc781610c71565b840191505092915050565b6000819050919050565b610fe581610fd2565b82525050565b600060c0820190506110006000830189610f29565b61100d6020830188610f29565b818103604083015261101f8187610f99565b905081810360608301526110338186610f99565b90506110426080830185610fdc565b81810360a08301526110548184610f99565b9050979650505050505050565b60006080820190506110766000830187610f29565b81810360208301526110888186610f99565b9050818103604083015261109c8185610f99565b905081810360608301526110b08184610f99565b905095945050505050565b6000602082840312156110d1576110d0610bff565b5b60006110df84828501610c52565b91505092915050565b600081905092915050565b60006110fe82610f53565b61110881856110e8565b9350611118818560208601610f6f565b80840191505092915050565b600061113082846110f3565b915081905092915050565b7f4e487b7100000000000000000000000000000000000000000000000000000000600052602260045260246000fd5b6000600282049050600182168061118257607f821691505b6020821081036111955761119461113b565b5b50919050565b60008190508160005260206000209050919050565b60006020601f8301049050919050565b600082821b905092915050565b6000600883026111fd7fffffffffffffffffffffffffffffffffffffffffffffffffffffffffffffffff826111c0565b61120786836111c0565b95508019841693508086168417925050509392505050565b6000819050919050565b600061124461123f61123a84610fd2565b61121f565b610fd2565b9050919050565b6000819050919050565b61125e83611229565b61127261126a8261124b565b8484546111cd565b825550505050565b600090565b61128761127a565b611292818484611255565b505050565b5b818110156112b6576112ab60008261127f565b600181019050611298565b5050565b601f8211156112fb576112cc8161119b565b6112d5846111b0565b810160208510156112e4578190505b6112f86112f0856111b0565b830182611297565b50505b505050565b600082821c905092915050565b600061131e60001984600802611300565b1980831691505092915050565b6000611337838361130d565b9150826002028217905092915050565b61135082610f53565b67ffffffffffffffff81111561136957611368610c82565b5b611373825461116a565b61137e8282856112ba565b600060209050601f8311600181146113b1576000841561139f578287015190505b6113a9858261132b565b865550611411565b601f1984166113bf8661119b565b60005b828110156113e7578489015182556001820191506020850194506020810190506113c2565b868310156114045784890151611400601f89168261130d565b8355505b6001600288020188555050505b505050505050565b600061142582866110f3565b915061143182856110f3565b915061143d82846110f3565b9150819050949350505050565b7f5374616b652076616c7565206d7573742062652067726561746572207468616e60008201527f2030000000000000000000000000000000000000000000000000000000000000602082015250565b60006114a6602283610f5e565b91506114b18261144a565b604082019050919050565b600060208201905081810360008301526114d581611499565b9050919050565b7f4e487b7100000000000000000000000000000000000000000000000000000000600052601160045260246000fd5b600061151682610fd2565b915061152183610fd2565b9250828201905080821115611539576115386114dc565b5b92915050565b6000815461154c8161116a565b61155681866110e8565b945060018216600081146115715760018114611586576115b9565b60ff19831686528115158202860193506115b9565b61158f8561119b565b60005b838110156115b157815481890152600182019150602081019050611592565b838801955050505b50505092915050565b60006115ce82866110f3565b91506115da82856110f3565b91506115e6828461153f565b9150819050949350505050565b7f4f776e61626c653a206e6577206f776e657220697320746865207a65726f206160008201527f6464726573730000000000000000000000000000000000000000000000000000602082015250565b600061164f602683610f5e565b915061165a826115f3565b604082019050919050565b6000602082019050818103600083015261167e81611642565b9050919050565b7f4f776e61626c653a2063616c6c6572206973206e6f7420746865206f776e6572600082015250565b60006116bb602083610f5e565b91506116c682611685565b602082019050919050565b600060208201905081810360008301526116ea816116ae565b905091905056fea2646970667358221220352cab5f6a813a8dedbf7d6828f5f7d62b66482b4c7ca0ff61dd588389e56f0c64736f6c63430008110033",
  "linkReferences": {},
  "deployedLinkReferences": {}
}